:020000040000FA
:04000000AAEF00F073
:100008001382F0A40AEF00F00CEF00F060EF00F0AC
:10001800F0AA11EF00F013EF00F060EF00F0060E09
:100028000A6E130E096EAE0EE82EFED7092EFCD707
:100038000A2EFAD7D606E868D618D8B426EF00F004
:1000480028EF00F02CEF00F0F094F294A8EF00F005
:100058005EEC02F0010E046E010E70EC01F0530E1E
:100068001BEC02F0540E1BEC02F0410E1BEC02F0EC
:10007800540E1BEC02F0550E1BEC02F0530E1BEC59
:1000880002F03A0E1BEC02F0200E1BEC02F0050EFB
:10009800046E020E70EC01F04F0E1BEC02F0500ED5
:1000A8001BEC02F0450E1BEC02F04E0E1BEC02F0AE
:1000B8008B8C8B9EF094F294F2A465EF00F067EFBE
:1000C80000F0A8EF00F0060E0A6E130E096EAE0ED1
:1000D800E82EFED7092EFCD70A2EFAD75EEC02F0DE
:1000E800010E046E010E70EC01F0530E1BEC02F0D1
:1000F800540E1BEC02F0410E1BEC02F0540E1BECEC
:1001080002F0550E1BEC02F0530E1BEC02F03A0EF7
:100118001BEC02F0200E1BEC02F0050E046E020E22
:1001280070EC01F0430E1BEC02F04C0E1BEC02F0DD
:100138004F0E1BEC02F0530E1BEC02F0450E1BECAD
:1001480002F08B9C8B8EF2941392110065EF02F0F3
:10015800600ED36E000E0F015D6F030E5C6F000E14
:10016800C16E210EC06E9386938A000E956E000EA6
:10017800946E000E966E000E5C6F05EC01F057EC65
:1001880002F0010E0E6E010E3DEC01F0530EFFEC75
:1001980001F0540EFFEC01F0410EFFEC01F0540E9B
:1001A800FFEC01F0550EFFEC01F0530EFFEC01F0EF
:1001B8003A0EFFEC01F0200EFFEC01F0050E0E6E7A
:1001C800020E3DEC01F04F0EFFEC01F0500EFFEC7B
:1001D80001F0450EFFEC01F04E0EFFEC01F08B8CA8
:1001E8008B9E680ED56EFB0ED66EF294F094F28A52
:1001F800F08AD588F196F28ED58E01EF01F0AAEF3C
:1002080000F0000EA3EC01F0340E0E6EF20EE82E94
:10021800FED70E2EFCD7030E37EC02F00D0E0E6E35
:10022800FC0EE82EFED70E2EFCD7030E37EC02F09C
:100238001D0E0E6E910EE82EFED70E2EFCD700F086
:10024800030E37EC02F0020E37EC02F0020E37EC28
:1002580002F0080E37EC02F0000E37EC02F00C0E3C
:1002680037EC02F0000E37EC02F0060E37EC02F025
:1002780012000F6E0F04D8A444EF01F046EF01F00E
:1002880057EF01F00E507F0F126E12380F0B106EE1
:1002980012500F0B116E105037EC02F0115037EC62
:1002A80002F06FEF01F0020E0F18D8A45EEF01F014
:1002B80060EF01F06FEF01F00E50BF0F126E1238B1
:1002C8000F0B106E12500F0B116E105037EC02F01E
:1002D800115037EC02F01200056E0504D8A477EF30
:1002E80001F079EF01F08AEF01F004507F0F086EFA
:1002F80008380F0B066E08500F0B076E065047ECB8
:1003080002F0075047EC02F0A2EF01F0020E0518C8
:10031800D8A491EF01F093EF01F0A2EF01F004509F
:10032800BF0F086E08380F0B066E08500F0B076ECC
:10033800065047EC02F0075047EC02F012000B6E33
:100348000BA0A9EF01F0ABEF01F0AEEF01F08C8844
:10035800AFEF01F08C980BA2B4EF01F0B6EF01F00B
:10036800B9EF01F08C8ABAEF01F08C9A0BA4BFEFB9
:1003780001F0C1EF01F0C4EF01F08C8CC5EF01F082
:100388008C9C0BA6CAEF01F0CCEF01F0CFEF01F087
:100398008C8ED0EF01F08C9E1200016E01A0D7EF79
:1003A80001F0D9EF01F0DCEF01F08C88DDEF01F00E
:1003B8008C9801A2E2EF01F0E4EF01F0E7EF01F021
:1003C8008C8AE8EF01F08C9A01A4EDEF01F0EFEFD1
:1003D80001F0F2EF01F08C8CF3EF01F08C9C01A698
:1003E800F8EF01F0FAEF01F0FDEF01F08C8EFEEF6F
:1003F80001F08C9E12000E6E0E500F0B0C6E0E50FC
:10040800F00B0D6E8D800D380F0BA3EC01F08D8471
:100418001A0EE82EFED700D08D940C50A3EC01F0F4
:100428008D841A0EE82EFED700D08D941200046E2B
:1004380004500F0B026E0450F00B036E8D800338CE
:100448000F0BD1EC01F08D841A0EE82EFED700D0E8
:100458008D940250D1EC01F08D841A0EE82EFED74F
:1004680000D08D9412000D6E8D900D50A3EC01F00C
:100478008D840B0E0C6E620EE82EFED70C2EFCD768
:1004880000D08D941200036E8D900350D1EC01F0D2
:100498008D840B0E026E620EE82EFED7022EFCD75C
:1004A80000D08D941200000E37EC02F0010E37ECEC
:1004B80002F01200000E47EC02F0010E47EC02F0C9
:0C04C8001200139013920001ACEF00F042
:020000040020DA
:08000000FFFFFFFFFFFFFFFF00
:020000040030CA
:0E0000005D087F7FFF8991FF0FC00FE00F406A
:00000001FF
